{
  "_format": "hh-sol-artifact-1",
  "contractName": "Corporate",
  "sourceName": "contracts/Corporate.sol",
  "abi": [
    {
      "inputs": [],
      "stateMutability": "nonpayable",
      "type": "constructor"
    },
    {
      "anonymous": false,
      "inputs": [
        {
          "indexed": true,
          "internalType": "address",
          "name": "_admin",
          "type": "address"
        }
      ],
      "name": "AdminAdded",
      "type": "event"
    },
    {
      "anonymous": false,
      "inputs": [
        {
          "indexed": true,
          "internalType": "address",
          "name": "_admin",
          "type": "address"
        }
      ],
      "name": "AdminRemoved",
      "type": "event"
    },
    {
      "anonymous": false,
      "inputs": [
        {
          "indexed": true,
          "internalType": "address",
          "name": "_employee",
          "type": "address"
        }
      ],
      "name": "EmployeeAdded",
      "type": "event"
    },
    {
      "anonymous": false,
      "inputs": [
        {
          "indexed": true,
          "internalType": "address",
          "name": "_employee",
          "type": "address"
        }
      ],
      "name": "EmployeeRemoved",
      "type": "event"
    },
    {
      "anonymous": false,
      "inputs": [
        {
          "indexed": false,
          "internalType": "uint256",
          "name": "_amount",
          "type": "uint256"
        }
      ],
      "name": "FundsAdded",
      "type": "event"
    },
    {
      "anonymous": false,
      "inputs": [
        {
          "indexed": false,
          "internalType": "uint256",
          "name": "_amount",
          "type": "uint256"
        }
      ],
      "name": "FundsWithdrawn",
      "type": "event"
    },
    {
      "anonymous": false,
      "inputs": [
        {
          "indexed": true,
          "internalType": "uint256",
          "name": "tokenId",
          "type": "uint256"
        },
        {
          "indexed": false,
          "internalType": "address",
          "name": "",
          "type": "address"
        }
      ],
      "name": "InvoiceGenerated",
      "type": "event"
    },
    {
      "anonymous": false,
      "inputs": [
        {
          "indexed": true,
          "internalType": "uint256",
          "name": "tokenId",
          "type": "uint256"
        },
        {
          "indexed": false,
          "internalType": "address",
          "name": "",
          "type": "address"
        }
      ],
      "name": "InvoicePaid",
      "type": "event"
    },
    {
      "anonymous": false,
      "inputs": [
        {
          "indexed": true,
          "internalType": "uint256",
          "name": "tokenId",
          "type": "uint256"
        },
        {
          "indexed": false,
          "internalType": "address",
          "name": "",
          "type": "address"
        }
      ],
      "name": "InvoiceRejected",
      "type": "event"
    },
    {
      "inputs": [
        {
          "internalType": "string",
          "name": "_name",
          "type": "string"
        },
        {
          "internalType": "address",
          "name": "_walletAddress",
          "type": "address"
        },
        {
          "internalType": "uint256",
          "name": "_payPeriod",
          "type": "uint256"
        },
        {
          "internalType": "uint256",
          "name": "_payAmount",
          "type": "uint256"
        },
        {
          "internalType": "uint256",
          "name": "_startTimestamp",
          "type": "uint256"
        }
      ],
      "name": "addEmployee",
      "outputs": [],
      "stateMutability": "nonpayable",
      "type": "function"
    },
    {
      "inputs": [],
      "name": "addFunds",
      "outputs": [],
      "stateMutability": "payable",
      "type": "function"
    },
    {
      "inputs": [
        {
          "internalType": "uint256",
          "name": "",
          "type": "uint256"
        }
      ],
      "name": "admins",
      "outputs": [
        {
          "internalType": "address",
          "name": "",
          "type": "address"
        }
      ],
      "stateMutability": "view",
      "type": "function"
    },
    {
      "inputs": [
        {
          "internalType": "address",
          "name": "",
          "type": "address"
        }
      ],
      "name": "employeeMapping",
      "outputs": [
        {
          "internalType": "string",
          "name": "name",
          "type": "string"
        },
        {
          "internalType": "address",
          "name": "walletAddress",
          "type": "address"
        },
        {
          "internalType": "uint256",
          "name": "payPeriod",
          "type": "uint256"
        },
        {
          "internalType": "uint256",
          "name": "payAmount",
          "type": "uint256"
        },
        {
          "internalType": "uint256",
          "name": "startTimestamp",
          "type": "uint256"
        },
        {
          "internalType": "uint256",
          "name": "nextPayTimestamp",
          "type": "uint256"
        }
      ],
      "stateMutability": "view",
      "type": "function"
    },
    {
      "inputs": [
        {
          "internalType": "uint256",
          "name": "",
          "type": "uint256"
        }
      ],
      "name": "employees",
      "outputs": [
        {
          "internalType": "address",
          "name": "",
          "type": "address"
        }
      ],
      "stateMutability": "view",
      "type": "function"
    },
    {
      "inputs": [
        {
          "internalType": "address",
          "name": "",
          "type": "address"
        },
        {
          "internalType": "uint256",
          "name": "",
          "type": "uint256"
        }
      ],
      "name": "freelancerInvoiceMapping",
      "outputs": [
        {
          "internalType": "uint256",
          "name": "",
          "type": "uint256"
        }
      ],
      "stateMutability": "view",
      "type": "function"
    },
    {
      "inputs": [
        {
          "internalType": "uint256",
          "name": "",
          "type": "uint256"
        }
      ],
      "name": "freelancers",
      "outputs": [
        {
          "internalType": "address",
          "name": "",
          "type": "address"
        }
      ],
      "stateMutability": "view",
      "type": "function"
    },
    {
      "inputs": [
        {
          "internalType": "uint256",
          "name": "_days",
          "type": "uint256"
        }
      ],
      "name": "getAmountToBePaid",
      "outputs": [
        {
          "internalType": "uint256",
          "name": "",
          "type": "uint256"
        }
      ],
      "stateMutability": "view",
      "type": "function"
    },
    {
      "inputs": [],
      "name": "getBalance",
      "outputs": [
        {
          "internalType": "uint256",
          "name": "",
          "type": "uint256"
        }
      ],
      "stateMutability": "view",
      "type": "function"
    },
    {
      "inputs": [
        {
          "internalType": "address",
          "name": "_employee",
          "type": "address"
        }
      ],
      "name": "getEmployeeDetails",
      "outputs": [
        {
          "components": [
            {
              "internalType": "string",
              "name": "name",
              "type": "string"
            },
            {
              "internalType": "address",
              "name": "walletAddress",
              "type": "address"
            },
            {
              "internalType": "uint256",
              "name": "payPeriod",
              "type": "uint256"
            },
            {
              "internalType": "uint256",
              "name": "payAmount",
              "type": "uint256"
            },
            {
              "internalType": "uint256",
              "name": "startTimestamp",
              "type": "uint256"
            },
            {
              "internalType": "uint256",
              "name": "nextPayTimestamp",
              "type": "uint256"
            }
          ],
          "internalType": "struct Corporate.Employee",
          "name": "",
          "type": "tuple"
        }
      ],
      "stateMutability": "view",
      "type": "function"
    },
    {
      "inputs": [
        {
          "internalType": "uint256",
          "name": "_payPeriod",
          "type": "uint256"
        }
      ],
      "name": "getSeconds",
      "outputs": [
        {
          "internalType": "uint256",
          "name": "seconds_",
          "type": "uint256"
        }
      ],
      "stateMutability": "pure",
      "type": "function"
    },
    {
      "inputs": [],
      "name": "getWithdrawableAmount",
      "outputs": [
        {
          "internalType": "uint256",
          "name": "amount",
          "type": "uint256"
        }
      ],
      "stateMutability": "view",
      "type": "function"
    },
    {
      "inputs": [
        {
          "internalType": "uint256",
          "name": "_tokenId",
          "type": "uint256"
        },
        {
          "internalType": "address",
          "name": "_freelancerAddress",
          "type": "address"
        },
        {
          "internalType": "uint256",
          "name": "_amountToPay",
          "type": "uint256"
        }
      ],
      "name": "payFreelancer",
      "outputs": [],
      "stateMutability": "nonpayable",
      "type": "function"
    },
    {
      "inputs": [
        {
          "internalType": "address",
          "name": "_walletAddress",
          "type": "address"
        }
      ],
      "name": "removeEmployee",
      "outputs": [],
      "stateMutability": "nonpayable",
      "type": "function"
    },
    {
      "inputs": [
        {
          "internalType": "bool",
          "name": "_response",
          "type": "bool"
        },
        {
          "internalType": "uint256",
          "name": "_tokenId",
          "type": "uint256"
        },
        {
          "internalType": "address",
          "name": "_freelancerAddress",
          "type": "address"
        }
      ],
      "name": "responseToInovice",
      "outputs": [],
      "stateMutability": "nonpayable",
      "type": "function"
    },
    {
      "inputs": [],
      "name": "superAdmin",
      "outputs": [
        {
          "internalType": "address",
          "name": "",
          "type": "address"
        }
      ],
      "stateMutability": "view",
      "type": "function"
    },
    {
      "inputs": [
        {
          "internalType": "uint256",
          "name": "_amount",
          "type": "uint256"
        }
      ],
      "name": "withdrawFunds",
      "outputs": [],
      "stateMutability": "nonpayable",
      "type": "function"
    }
  ],
  "bytecode": "0x60806040523480156200001157600080fd5b506001600081905550620000496040518060600160405280602b815260200162002d08602b91396200009f60201b6200176e1760201c565b620000596200014260201b60201c565b600160006101000a81548173ffffffffffffffffffffffffffffffffffffffff021916908373ffffffffffffffffffffffffffffffffffffffff16021790555062000231565b6200013f81604051602401620000b691906200020d565b6040516020818303038152906040527f41304fac000000000000000000000000000000000000000000000000000000007bffffffffffffffffffffffffffffffffffffffffffffffffffffffff19166020820180517bffffffffffffffffffffffffffffffffffffffffffffffffffffffff83818316178352505050506200014a60201b60201c565b50565b600033905090565b60008151905060006a636f6e736f6c652e6c6f679050602083016000808483855afa5050505050565b600081519050919050565b600082825260208201905092915050565b60005b83811015620001af57808201518184015260208101905062000192565b60008484015250505050565b6000601f19601f8301169050919050565b6000620001d98262000173565b620001e581856200017e565b9350620001f78185602086016200018f565b6200020281620001bb565b840191505092915050565b60006020820190508181036000830152620002298184620001cc565b905092915050565b612ac780620002416000396000f3fe6080604052600436106100fe5760003560e01c80634739326b11610095578063a26759cb11610064578063a26759cb14610386578063b57e631614610390578063badd7720146103cd578063d108177a146103f6578063f3bf68a91461041f576100fe565b80634739326b146102b85780635871b4bf146102f55780635fea59cd1461031e57806390be10cc1461035b576100fe565b80631caafcf1116100d15780631caafcf1146101d157806329575f6a1461020e5780632ef8852d146102395780633b6d5b4814610276576100fe565b80630b9364d81461010357806312065fe01461014057806314bfd6d01461016b578063155dd5ee146101a8575b600080fd5b34801561010f57600080fd5b5061012a60048036038101906101259190611c16565b610448565b6040516101379190611c84565b60405180910390f35b34801561014c57600080fd5b50610155610487565b6040516101629190611cae565b60405180910390f35b34801561017757600080fd5b50610192600480360381019061018d9190611c16565b61048f565b60405161019f9190611c84565b60405180910390f35b3480156101b457600080fd5b506101cf60048036038101906101ca9190611c16565b6104ce565b005b3480156101dd57600080fd5b506101f860048036038101906101f39190611cf5565b610708565b6040516102059190611e59565b60405180910390f35b34801561021a57600080fd5b50610223610871565b6040516102309190611c84565b60405180910390f35b34801561024557600080fd5b50610260600480360381019061025b9190611c16565b610897565b60405161026d9190611cae565b60405180910390f35b34801561028257600080fd5b5061029d60048036038101906102989190611cf5565b61097c565b6040516102af96959493929190611ec5565b60405180910390f35b3480156102c457600080fd5b506102df60048036038101906102da9190611c16565b610a60565b6040516102ec9190611c84565b60405180910390f35b34801561030157600080fd5b5061031c60048036038101906103179190611f2d565b610a9f565b005b34801561032a57600080fd5b5061034560048036038101906103409190611c16565b610d14565b6040516103529190611cae565b60405180910390f35b34801561036757600080fd5b50610370610d26565b60405161037d9190611cae565b60405180910390f35b61038e610d37565b005b34801561039c57600080fd5b506103b760048036038101906103b29190611f80565b610e57565b6040516103c49190611cae565b60405180910390f35b3480156103d957600080fd5b506103f460048036038101906103ef91906120f5565b610e88565b005b34801561040257600080fd5b5061041d60048036038101906104189190611cf5565b61120a565b005b34801561042b57600080fd5b50610446600480360381019061044191906121c4565b61162e565b005b6004818154811061045857600080fd5b906000526020600020016000915054906101000a900473ffffffffffffffffffffffffffffffffffffffff1681565b600047905090565b6002818154811061049f57600080fd5b906000526020600020016000915054906101000a900473ffffffffffffffffffffffffffffffffffffffff1681565b6000805b600280549050811015610573576104e7611807565b73ffffffffffffffffffffffffffffffffffffffff166002828154811061051157610510612217565b5b9060005260206000200160009054906101000a900473ffffffffffffffffffffffffffffffffffffffff1673ffffffffffffffffffffffffffffffffffffffff16036105605760019150610573565b808061056b90612275565b9150506104d2565b50806105b4576040517f08c379a00000000000000000000000000000000000000000000000000000000081526004016105ab90612309565b60405180910390fd5b6105bc61180f565b816105c5610d26565b476105d09190612329565b1015610611576040517f08c379a0000000000000000000000000000000000000000000000000000000008152600401610608906123cf565b60405180910390fd5b600061061b611807565b73ffffffffffffffffffffffffffffffffffffffff168360405161063e90612420565b60006040518083038185875af1925050503d806000811461067b576040519150601f19603f3d011682016040523d82523d6000602084013e610680565b606091505b50509050806106c4576040517f08c379a00000000000000000000000000000000000000000000000000000000081526004016106bb90612481565b60405180910390fd5b7f4a37b25aab49761ecf63117fe82b98d750917451133cf797507bc9fb5b96044a836040516106f39190611cae565b60405180910390a15061070461185e565b5050565b610710611b23565b600560008373ffffffffffffffffffffffffffffffffffffffff1673ffffffffffffffffffffffffffffffffffffffff1681526020019081526020016000206040518060c001604052908160008201805461076a906124d0565b80601f0160208091040260200160405190810160405280929190818152602001828054610796906124d0565b80156107e35780601f106107b8576101008083540402835291602001916107e3565b820191906000526020600020905b8154815290600101906020018083116107c657829003601f168201915b505050505081526020016001820160009054906101000a900473ffffffffffffffffffffffffffffffffffffffff1673ffffffffffffffffffffffffffffffffffffffff1673ffffffffffffffffffffffffffffffffffffffff1681526020016002820154815260200160038201548152602001600482015481526020016005820154815250509050919050565b600160009054906101000a900473ffffffffffffffffffffffffffffffffffffffff1681565b60008060058111156108ac576108ab612501565b5b82036108bd5762093a809050610977565b600160058111156108d1576108d0612501565b5b82036108e257621275009050610977565b600260058111156108f6576108f5612501565b5b8203610907576228206f9050610977565b6003600581111561091b5761091a612501565b5b820361092c576278614d9050610977565b600460058111156109405761093f612501565b5b82036109515762f0c29a9050610977565b60058081111561096457610963612501565b5b8203610976576301e1853e9050610977565b5b919050565b600560205280600052604060002060009150905080600001805461099f906124d0565b80601f01602080910402602001604051908101604052809291908181526020018280546109cb906124d0565b8015610a185780601f106109ed57610100808354040283529160200191610a18565b820191906000526020600020905b8154815290600101906020018083116109fb57829003601f168201915b5050505050908060010160009054906101000a900473ffffffffffffffffffffffffffffffffffffffff16908060020154908060030154908060040154908060050154905086565b60038181548110610a7057600080fd5b906000526020600020016000915054906101000a900473ffffffffffffffffffffffffffffffffffffffff1681565b6000805b600280549050811015610b4457610ab8611807565b73ffffffffffffffffffffffffffffffffffffffff1660028281548110610ae257610ae1612217565b5b9060005260206000200160009054906101000a900473ffffffffffffffffffffffffffffffffffffffff1673ffffffffffffffffffffffffffffffffffffffff1603610b315760019150610b44565b8080610b3c90612275565b915050610aa3565b5080610b85576040517f08c379a0000000000000000000000000000000000000000000000000000000008152600401610b7c90612309565b60405180910390fd5b6000600660008573ffffffffffffffffffffffffffffffffffffffff1673ffffffffffffffffffffffffffffffffffffffff16815260200190815260200160002090506000818681548110610bdd57610bdc612217565b5b906000526020600020015403610c28576040517f08c379a0000000000000000000000000000000000000000000000000000000008152600401610c1f9061257c565b60405180910390fd5b60008473ffffffffffffffffffffffffffffffffffffffff1684604051610c4e90612420565b60006040518083038185875af1925050503d8060008114610c8b576040519150601f19603f3d011682016040523d82523d6000602084013e610c90565b606091505b5050905080610cd4576040517f08c379a0000000000000000000000000000000000000000000000000000000008152600401610ccb906125e8565b60405180910390fd5b857fb721ab7d2767e645e582c99d779d54bb3193114ad7d13e7bd7f7f2fd9b1875b486604051610d049190611c84565b60405180910390a2505050505050565b6000610d1f82611868565b9050919050565b6000610d32601e611868565b905090565b6000805b600280549050811015610ddc57610d50611807565b73ffffffffffffffffffffffffffffffffffffffff1660028281548110610d7a57610d79612217565b5b9060005260206000200160009054906101000a900473ffffffffffffffffffffffffffffffffffffffff1673ffffffffffffffffffffffffffffffffffffffff1603610dc95760019150610ddc565b8080610dd490612275565b915050610d3b565b5080610e1d576040517f08c379a0000000000000000000000000000000000000000000000000000000008152600401610e1490612309565b60405180910390fd5b7fd30fc8a1b5907be76206421a3040262f1f6aed0d418c05312ef5ff8de0c9ae4c34604051610e4c9190611cae565b60405180910390a150565b60066020528160005260406000208181548110610e7357600080fd5b90600052602060002001600091509150505481565b6000805b600280549050811015610f2d57610ea1611807565b73ffffffffffffffffffffffffffffffffffffffff1660028281548110610ecb57610eca612217565b5b9060005260206000200160009054906101000a900473ffffffffffffffffffffffffffffffffffffffff1673ffffffffffffffffffffffffffffffffffffffff1603610f1a5760019150610f2d565b8080610f2590612275565b915050610e8c565b5080610f6e576040517f08c379a0000000000000000000000000000000000000000000000000000000008152600401610f6590612309565b60405180910390fd5b600073ffffffffffffffffffffffffffffffffffffffff16600560008773ffffffffffffffffffffffffffffffffffffffff1673ffffffffffffffffffffffffffffffffffffffff16815260200190815260200160002060010160009054906101000a900473ffffffffffffffffffffffffffffffffffffffff1673ffffffffffffffffffffffffffffffffffffffff161461103f576040517f08c379a000000000000000000000000000000000000000000000000000000000815260040161103690612654565b60405180910390fd5b6003859080600181540180825580915050600190039060005260206000200160009091909190916101000a81548173ffffffffffffffffffffffffffffffffffffffff021916908373ffffffffffffffffffffffffffffffffffffffff1602179055506040518060c001604052808781526020018673ffffffffffffffffffffffffffffffffffffffff1681526020018581526020018481526020018381526020016110ea86610897565b846110f59190612674565b815250600560008773ffffffffffffffffffffffffffffffffffffffff1673ffffffffffffffffffffffffffffffffffffffff168152602001908152602001600020600082015181600001908161114c9190612854565b5060208201518160010160006101000a81548173ffffffffffffffffffffffffffffffffffffffff021916908373ffffffffffffffffffffffffffffffffffffffff16021790555060408201518160020155606082015181600301556080820151816004015560a082015181600501559050508473ffffffffffffffffffffffffffffffffffffffff167f041109cfe10cfa549abb66b986d0a294ecc6c9ad39000abcb9c2afd422c8bd6460405160405180910390a2505050505050565b6000805b6002805490508110156112af57611223611807565b73ffffffffffffffffffffffffffffffffffffffff166002828154811061124d5761124c612217565b5b9060005260206000200160009054906101000a900473ffffffffffffffffffffffffffffffffffffffff1673ffffffffffffffffffffffffffffffffffffffff160361129c57600191506112af565b80806112a790612275565b91505061120e565b50806112f0576040517f08c379a00000000000000000000000000000000000000000000000000000000081526004016112e790612309565b60405180910390fd5b600073ffffffffffffffffffffffffffffffffffffffff16600560008473ffffffffffffffffffffffffffffffffffffffff1673ffffffffffffffffffffffffffffffffffffffff16815260200190815260200160002060010160009054906101000a900473ffffffffffffffffffffffffffffffffffffffff1673ffffffffffffffffffffffffffffffffffffffff16036113c1576040517f08c379a00000000000000000000000000000000000000000000000000000000081526004016113b890612972565b60405180910390fd5b60005b60038054905081101561154d578273ffffffffffffffffffffffffffffffffffffffff16600382815481106113fc576113fb612217565b5b9060005260206000200160009054906101000a900473ffffffffffffffffffffffffffffffffffffffff1673ffffffffffffffffffffffffffffffffffffffff160361153a57600360016003805490506114569190612329565b8154811061146757611466612217565b5b9060005260206000200160009054906101000a900473ffffffffffffffffffffffffffffffffffffffff16600382815481106114a6576114a5612217565b5b9060005260206000200160006101000a81548173ffffffffffffffffffffffffffffffffffffffff021916908373ffffffffffffffffffffffffffffffffffffffff1602179055506003805480611500576114ff612992565b5b6001900381819060005260206000200160006101000a81549073ffffffffffffffffffffffffffffffffffffffff0219169055905561154d565b808061154590612275565b9150506113c4565b50600560008373ffffffffffffffffffffffffffffffffffffffff1673ffffffffffffffffffffffffffffffffffffffff1681526020019081526020016000206000808201600061159e9190611b6f565b6001820160006101000a81549073ffffffffffffffffffffffffffffffffffffffff0219169055600282016000905560038201600090556004820160009055600582016000905550508173ffffffffffffffffffffffffffffffffffffffff167fabae6e64cb4315875c29d42347a312f5e9fce4ab564e9722b43dd78d0751135a60405160405180910390a25050565b6000805b6002805490508110156116d357611647611807565b73ffffffffffffffffffffffffffffffffffffffff166002828154811061167157611670612217565b5b9060005260206000200160009054906101000a900473ffffffffffffffffffffffffffffffffffffffff1673ffffffffffffffffffffffffffffffffffffffff16036116c057600191506116d3565b80806116cb90612275565b915050611632565b5080611714576040517f08c379a000000000000000000000000000000000000000000000000000000000815260040161170b90612309565b60405180910390fd5b600115158415150361172f5761172a8383611a58565b611768565b827f2f257c8b6b1a686c001165d5da2e4d41938b1852b243112c8ad67b551535c9958360405161175f9190611c84565b60405180910390a25b50505050565b6118048160405160240161178291906129c1565b6040516020818303038152906040527f41304fac000000000000000000000000000000000000000000000000000000007bffffffffffffffffffffffffffffffffffffffffffffffffffffffff19166020820180517bffffffffffffffffffffffffffffffffffffffffffffffffffffffff8381831617835250505050611afa565b50565b600033905090565b600260005403611854576040517f08c379a000000000000000000000000000000000000000000000000000000000815260040161184b90612a2f565b60405180910390fd5b6002600081905550565b6001600081905550565b6000806000905060005b600380549050811015611a4e57600560006003838154811061189757611896612217565b5b9060005260206000200160009054906101000a900473ffffffffffffffffffffffffffffffffffffffff1673ffffffffffffffffffffffffffffffffffffffff1673ffffffffffffffffffffffffffffffffffffffff1681526020019081526020016000206005015442101580156119a7575062015180846119199190612a4f565b426119249190612674565b600560006003848154811061193c5761193b612217565b5b9060005260206000200160009054906101000a900473ffffffffffffffffffffffffffffffffffffffff1673ffffffffffffffffffffffffffffffffffffffff1673ffffffffffffffffffffffffffffffffffffffff16815260200190815260200160002060050154105b15611a3b5760056000600383815481106119c4576119c3612217565b5b9060005260206000200160009054906101000a900473ffffffffffffffffffffffffffffffffffffffff1673ffffffffffffffffffffffffffffffffffffffff1673ffffffffffffffffffffffffffffffffffffffff1681526020019081526020016000206003015482611a389190612674565b91505b8080611a4690612275565b915050611872565b5080915050919050565b600660008273ffffffffffffffffffffffffffffffffffffffff1673ffffffffffffffffffffffffffffffffffffffff168152602001908152602001600020829080600181540180825580915050600190039060005260206000200160009091909190915055817f9144b87df6b9037988726539a5cd304efcae3314098c0798758746fd815f8d5582604051611aee9190611c84565b60405180910390a25050565b60008151905060006a636f6e736f6c652e6c6f679050602083016000808483855afa5050505050565b6040518060c0016040528060608152602001600073ffffffffffffffffffffffffffffffffffffffff168152602001600081526020016000815260200160008152602001600081525090565b508054611b7b906124d0565b6000825580601f10611b8d5750611bac565b601f016020900490600052602060002090810190611bab9190611baf565b5b50565b5b80821115611bc8576000816000905550600101611bb0565b5090565b6000604051905090565b600080fd5b600080fd5b6000819050919050565b611bf381611be0565b8114611bfe57600080fd5b50565b600081359050611c1081611bea565b92915050565b600060208284031215611c2c57611c2b611bd6565b5b6000611c3a84828501611c01565b91505092915050565b600073ffffffffffffffffffffffffffffffffffffffff82169050919050565b6000611c6e82611c43565b9050919050565b611c7e81611c63565b82525050565b6000602082019050611c996000830184611c75565b92915050565b611ca881611be0565b82525050565b6000602082019050611cc36000830184611c9f565b92915050565b611cd281611c63565b8114611cdd57600080fd5b50565b600081359050611cef81611cc9565b92915050565b600060208284031215611d0b57611d0a611bd6565b5b6000611d1984828501611ce0565b91505092915050565b600081519050919050565b600082825260208201905092915050565b60005b83811015611d5c578082015181840152602081019050611d41565b60008484015250505050565b6000601f19601f8301169050919050565b6000611d8482611d22565b611d8e8185611d2d565b9350611d9e818560208601611d3e565b611da781611d68565b840191505092915050565b611dbb81611c63565b82525050565b611dca81611be0565b82525050565b600060c0830160008301518482036000860152611ded8282611d79565b9150506020830151611e026020860182611db2565b506040830151611e156040860182611dc1565b506060830151611e286060860182611dc1565b506080830151611e3b6080860182611dc1565b5060a0830151611e4e60a0860182611dc1565b508091505092915050565b60006020820190508181036000830152611e738184611dd0565b905092915050565b600082825260208201905092915050565b6000611e9782611d22565b611ea18185611e7b565b9350611eb1818560208601611d3e565b611eba81611d68565b840191505092915050565b600060c0820190508181036000830152611edf8189611e8c565b9050611eee6020830188611c75565b611efb6040830187611c9f565b611f086060830186611c9f565b611f156080830185611c9f565b611f2260a0830184611c9f565b979650505050505050565b600080600060608486031215611f4657611f45611bd6565b5b6000611f5486828701611c01565b9350506020611f6586828701611ce0565b9250506040611f7686828701611c01565b9150509250925092565b60008060408385031215611f9757611f96611bd6565b5b6000611fa585828601611ce0565b9250506020611fb685828601611c01565b9150509250929050565b600080fd5b600080fd5b7f4e487b7100000000000000000000000000000000000000000000000000000000600052604160045260246000fd5b61200282611d68565b810181811067ffffffffffffffff8211171561202157612020611fca565b5b80604052505050565b6000612034611bcc565b90506120408282611ff9565b919050565b600067ffffffffffffffff8211156120605761205f611fca565b5b61206982611d68565b9050602081019050919050565b82818337600083830152505050565b600061209861209384612045565b61202a565b9050828152602081018484840111156120b4576120b3611fc5565b5b6120bf848285612076565b509392505050565b600082601f8301126120dc576120db611fc0565b5b81356120ec848260208601612085565b91505092915050565b600080600080600060a0868803121561211157612110611bd6565b5b600086013567ffffffffffffffff81111561212f5761212e611bdb565b5b61213b888289016120c7565b955050602061214c88828901611ce0565b945050604061215d88828901611c01565b935050606061216e88828901611c01565b925050608061217f88828901611c01565b9150509295509295909350565b60008115159050919050565b6121a18161218c565b81146121ac57600080fd5b50565b6000813590506121be81612198565b92915050565b6000806000606084860312156121dd576121dc611bd6565b5b60006121eb868287016121af565b93505060206121fc86828701611c01565b925050604061220d86828701611ce0565b9150509250925092565b7f4e487b7100000000000000000000000000000000000000000000000000000000600052603260045260246000fd5b7f4e487b7100000000000000000000000000000000000000000000000000000000600052601160045260246000fd5b600061228082611be0565b91507fffffffffffffffffffffffffffffffffffffffffffffffffffffffffffffffff82036122b2576122b1612246565b5b600182019050919050565b7f43616c6c6572206973206e6f742041646d696e00000000000000000000000000600082015250565b60006122f3601383611e7b565b91506122fe826122bd565b602082019050919050565b60006020820190508181036000830152612322816122e6565b9050919050565b600061233482611be0565b915061233f83611be0565b925082820390508181111561235757612356612246565b5b92915050565b7f496e73756666696369656e742066756e647320696e2074686520636f6e74726160008201527f6374000000000000000000000000000000000000000000000000000000000000602082015250565b60006123b9602283611e7b565b91506123c48261235d565b604082019050919050565b600060208201905081810360008301526123e8816123ac565b9050919050565b600081905092915050565b50565b600061240a6000836123ef565b9150612415826123fa565b600082019050919050565b600061242b826123fd565b9150819050919050565b7f5769746864726177206661696c65642e00000000000000000000000000000000600082015250565b600061246b601083611e7b565b915061247682612435565b602082019050919050565b6000602082019050818103600083015261249a8161245e565b9050919050565b7f4e487b7100000000000000000000000000000000000000000000000000000000600052602260045260246000fd5b600060028204905060018216806124e857607f821691505b6020821081036124fb576124fa6124a1565b5b50919050565b7f4e487b7100000000000000000000000000000000000000000000000000000000600052602160045260246000fd5b7f496e766f696365206e6f742067656e6572617465640000000000000000000000600082015250565b6000612566601583611e7b565b915061257182612530565b602082019050919050565b6000602082019050818103600083015261259581612559565b9050919050565b7f5061796d656e74206661696c65642e0000000000000000000000000000000000600082015250565b60006125d2600f83611e7b565b91506125dd8261259c565b602082019050919050565b60006020820190508181036000830152612601816125c5565b9050919050565b7f456d706c6f79656520616c726561647920616464656400000000000000000000600082015250565b600061263e601683611e7b565b915061264982612608565b602082019050919050565b6000602082019050818103600083015261266d81612631565b9050919050565b600061267f82611be0565b915061268a83611be0565b92508282019050808211156126a2576126a1612246565b5b92915050565b60008190508160005260206000209050919050565b60006020601f8301049050919050565b600082821b905092915050565b60006008830261270a7fffffffffffffffffffffffffffffffffffffffffffffffffffffffffffffffff826126cd565b61271486836126cd565b95508019841693508086168417925050509392505050565b6000819050919050565b600061275161274c61274784611be0565b61272c565b611be0565b9050919050565b6000819050919050565b61276b83612736565b61277f61277782612758565b8484546126da565b825550505050565b600090565b612794612787565b61279f818484612762565b505050565b5b818110156127c3576127b860008261278c565b6001810190506127a5565b5050565b601f821115612808576127d9816126a8565b6127e2846126bd565b810160208510156127f1578190505b6128056127fd856126bd565b8301826127a4565b50505b505050565b600082821c905092915050565b600061282b6000198460080261280d565b1980831691505092915050565b6000612844838361281a565b9150826002028217905092915050565b61285d82611d22565b67ffffffffffffffff81111561287657612875611fca565b5b61288082546124d0565b61288b8282856127c7565b600060209050601f8311600181146128be57600084156128ac578287015190505b6128b68582612838565b86555061291e565b601f1984166128cc866126a8565b60005b828110156128f4578489015182556001820191506020850194506020810190506128cf565b86831015612911578489015161290d601f89168261281a565b8355505b6001600288020188555050505b505050505050565b7f456d706c6f796565206e6f742061646465640000000000000000000000000000600082015250565b600061295c601283611e7b565b915061296782612926565b602082019050919050565b6000602082019050818103600083015261298b8161294f565b9050919050565b7f4e487b7100000000000000000000000000000000000000000000000000000000600052603160045260246000fd5b600060208201905081810360008301526129db8184611e8c565b905092915050565b7f5265656e7472616e637947756172643a207265656e7472616e742063616c6c00600082015250565b6000612a19601f83611e7b565b9150612a24826129e3565b602082019050919050565b60006020820190508181036000830152612a4881612a0c565b9050919050565b6000612a5a82611be0565b9150612a6583611be0565b9250828202612a7381611be0565b91508282048414831517612a8a57612a89612246565b5b509291505056fea2646970667358221220b5534845603496ae79a0271026f1194a0a84a30291031f8b30db5b47edcd2baf64736f6c634300081100334465706c6f79696e67206120436f72706f72617465436f6e7472616374207769746820536f6c6964697479",
  "linkReferences": {},
  "deployedLinkReferences": {}
}